:03000000020200F9
:0300430002026C4A
:1002000090E6007414F090E678E0900100F090E63B
:10021000787480F090E67974A0F07B0012025E7B27
:10022000C012025E7BD812025E7B1312025E7B203C
:1002300012025E7B0012025E7B0012025E7B0012E5
:10024000025E7B0012025E90E6787440F090E678E1
:10025000E0900101F090E680740CF002025B90E601
:1002600078E0540160FB90E679EBF022C086C08212
:10027000C083C084C085C0E0C0D0C000C001C0023F
:10028000C003C004C005C006C007E591C2E4F591F3
:10029000D007D006D005D004D003D002D001D000C2
:0F02A000D0D0D0E0D085D084D083D082D0863229
:00000001FF
