:03000000020200F9
:0300430002026650
:1002000090E6007414F090E678E0900100F090E63B
:10021000787480F090E67974A0F07B001202587B2D
:10022000C01202587BD81202587B131202587B105E
:100230001202587B001202587B001202587B0012F7
:1002400002587B0012025890E6787440F090E678ED
:10025000E0900101F002025590E678E0540160FB65
:1002600090E679EBF022C086C082C083C084C0854E
:10027000C0E0C0D0C000C001C002C003C004C005BF
:10028000C006C007E591C2E4F591D007D006D005BD
:10029000D004D003D002D001D000D0D0D0E0D0859F
:0902A000D084D083D082D08632D4
:00000001FF
